{
  "contractName": "DHire",
  "abi": [
    {
      "inputs": [],
      "stateMutability": "nonpayable",
      "type": "constructor"
    },
    {
      "inputs": [],
      "name": "name",
      "outputs": [
        {
          "internalType": "string",
          "name": "",
          "type": "string"
        }
      ],
      "stateMutability": "view",
      "type": "function"
    },
    {
      "inputs": [
        {
          "internalType": "string",
          "name": "",
          "type": "string"
        }
      ],
      "name": "nameToUser",
      "outputs": [
        {
          "internalType": "address",
          "name": "",
          "type": "address"
        }
      ],
      "stateMutability": "view",
      "type": "function"
    },
    {
      "inputs": [],
      "name": "resumeCount",
      "outputs": [
        {
          "internalType": "uint256",
          "name": "",
          "type": "uint256"
        }
      ],
      "stateMutability": "view",
      "type": "function"
    },
    {
      "inputs": [
        {
          "internalType": "uint256",
          "name": "",
          "type": "uint256"
        }
      ],
      "name": "resumes",
      "outputs": [
        {
          "internalType": "uint256",
          "name": "id",
          "type": "uint256"
        },
        {
          "internalType": "string",
          "name": "hash",
          "type": "string"
        },
        {
          "internalType": "string",
          "name": "authorName",
          "type": "string"
        }
      ],
      "stateMutability": "view",
      "type": "function"
    },
    {
      "inputs": [
        {
          "internalType": "string",
          "name": "_username",
          "type": "string"
        },
        {
          "internalType": "string",
          "name": "_bio",
          "type": "string"
        }
      ],
      "name": "registerUser",
      "outputs": [],
      "stateMutability": "nonpayable",
      "type": "function"
    },
    {
      "inputs": [
        {
          "internalType": "string",
          "name": "_username",
          "type": "string"
        }
      ],
      "name": "getUser",
      "outputs": [
        {
          "internalType": "string",
          "name": "",
          "type": "string"
        },
        {
          "internalType": "string",
          "name": "",
          "type": "string"
        },
        {
          "internalType": "uint256",
          "name": "",
          "type": "uint256"
        }
      ],
      "stateMutability": "view",
      "type": "function"
    },
    {
      "inputs": [
        {
          "internalType": "string",
          "name": "_docHash",
          "type": "string"
        }
      ],
      "name": "uploadResume",
      "outputs": [],
      "stateMutability": "nonpayable",
      "type": "function"
    },
    {
      "inputs": [],
      "name": "getMessages",
      "outputs": [
        {
          "internalType": "string[]",
          "name": "",
          "type": "string[]"
        }
      ],
      "stateMutability": "view",
      "type": "function"
    },
    {
      "inputs": [
        {
          "internalType": "string",
          "name": "_rcvName",
          "type": "string"
        },
        {
          "internalType": "string",
          "name": "_message",
          "type": "string"
        }
      ],
      "name": "sendMessage",
      "outputs": [],
      "stateMutability": "nonpayable",
      "type": "function"
    }
  ],
  "bytecode": "0x60806040526040518060400160405280600581526020017f444869726500000000000000000000000000000000000000000000000000000081525060009080519060200190620000519291906200006b565b5060006003553480156200006457600080fd5b5062000180565b82805462000079906200011b565b90600052602060002090601f0160209004810192826200009d5760008555620000e9565b82601f10620000b857805160ff1916838001178555620000e9565b82800160010185558215620000e9579182015b82811115620000e8578251825591602001919060010190620000cb565b5b509050620000f89190620000fc565b5090565b5b8082111562000117576000816000905550600101620000fd565b5090565b600060028204905060018216806200013457607f821691505b602082108114156200014b576200014a62000151565b5b50919050565b7f4e487b7100000000000000000000000000000000000000000000000000000000600052602260045260246000fd5b611c5c80620001906000396000f3fe608060405234801561001057600080fd5b50600436106100935760003560e01c806331feb6711161006657806331feb6711461010c578063467fba0f1461013e57806348305c911461015a5780635ff6cbf31461018a578063d7334ef3146101a857610093565b806306fdde03146100985780631d2e4afd146100b65780632e323961146100d257806330b759dd146100ee575b600080fd5b6100a06101da565b6040516100ad91906117c4565b60405180910390f35b6100d060048036038101906100cb9190611591565b610268565b005b6100ec60048036038101906100e79190611550565b61042a565b005b6100f661073f565b604051610103919061182b565b60405180910390f35b61012660048036038101906101219190611550565b610745565b604051610135939291906117e6565b60405180910390f35b61015860048036038101906101539190611591565b6109e0565b005b610174600480360381019061016f9190611550565b610cfc565b6040516101819190611787565b60405180910390f35b610192610d45565b60405161019f91906117a2565b60405180910390f35b6101c260048036038101906101bd91906115fd565b610ef0565b6040516101d193929190611846565b60405180910390f35b600080546101e790611a96565b80601f016020809104026020016040519081016040528092919081815260200182805461021390611a96565b80156102605780601f1061023557610100808354040283529160200191610260565b820191906000526020600020905b81548152906001019060200180831161024357829003601f168201915b505050505081565b600082511161027657600080fd5b600073ffffffffffffffffffffffffffffffffffffffff163373ffffffffffffffffffffffffffffffffffffffff1614156102b057600080fd5b600073ffffffffffffffffffffffffffffffffffffffff166002836040516102d89190611770565b908152602001604051809103902060009054906101000a900473ffffffffffffffffffffffffffffffffffffffff1673ffffffffffffffffffffffffffffffffffffffff161461032757600080fd5b60405180606001604052808381526020018281526020016000815250600160003373ffffffffffffffffffffffffffffffffffffffff1673ffffffffffffffffffffffffffffffffffffffff168152602001908152602001600020600082015181600001908051906020019061039e929190611430565b5060208201518160010190805190602001906103bb929190611430565b5060408201518160020155905050336002836040516103da9190611770565b908152602001604051809103902060006101000a81548173ffffffffffffffffffffffffffffffffffffffff021916908373ffffffffffffffffffffffffffffffffffffffff1602179055505050565b600081511161043857600080fd5b600073ffffffffffffffffffffffffffffffffffffffff163373ffffffffffffffffffffffffffffffffffffffff16141561047257600080fd5b6000600160003373ffffffffffffffffffffffffffffffffffffffff1673ffffffffffffffffffffffffffffffffffffffff16815260200190815260200160002060000180546104c190611a96565b9050116104cd57600080fd5b6000600160003373ffffffffffffffffffffffffffffffffffffffff1673ffffffffffffffffffffffffffffffffffffffff1681526020019081526020016000206002015411610579576003600081548092919061052a90611ac8565b9190505550600354600160003373ffffffffffffffffffffffffffffffffffffffff1673ffffffffffffffffffffffffffffffffffffffff168152602001908152602001600020600201819055505b6040518060600160405280600160003373ffffffffffffffffffffffffffffffffffffffff1673ffffffffffffffffffffffffffffffffffffffff168152602001908152602001600020600201548152602001828152602001600160003373ffffffffffffffffffffffffffffffffffffffff1673ffffffffffffffffffffffffffffffffffffffff168152602001908152602001600020600001805461061f90611a96565b80601f016020809104026020016040519081016040528092919081815260200182805461064b90611a96565b80156106985780601f1061066d57610100808354040283529160200191610698565b820191906000526020600020905b81548152906001019060200180831161067b57829003601f168201915b505050505081525060046000600160003373ffffffffffffffffffffffffffffffffffffffff1673ffffffffffffffffffffffffffffffffffffffff16815260200190815260200160002060020154815260200190815260200160002060008201518160000155602082015181600101908051906020019061071b929190611430565b506040820151816002019080519060200190610738929190611430565b5090505050565b60035481565b60608060008084511161075757600080fd5b600073ffffffffffffffffffffffffffffffffffffffff163373ffffffffffffffffffffffffffffffffffffffff16141561079157600080fd5b600073ffffffffffffffffffffffffffffffffffffffff166002856040516107b99190611770565b908152602001604051809103902060009054906101000a900473ffffffffffffffffffffffffffffffffffffffff1673ffffffffffffffffffffffffffffffffffffffff16141561080957600080fd5b60006001600060028760405161081f9190611770565b908152602001604051809103902060009054906101000a900473ffffffffffffffffffffffffffffffffffffffff1673ffffffffffffffffffffffffffffffffffffffff1673ffffffffffffffffffffffffffffffffffffffff1681526020019081526020016000206040518060600160405290816000820180546108a390611a96565b80601f01602080910402602001604051908101604052809291908181526020018280546108cf90611a96565b801561091c5780601f106108f15761010080835404028352916020019161091c565b820191906000526020600020905b8154815290600101906020018083116108ff57829003601f168201915b5050505050815260200160018201805461093590611a96565b80601f016020809104026020016040519081016040528092919081815260200182805461096190611a96565b80156109ae5780601f10610983576101008083540402835291602001916109ae565b820191906000526020600020905b81548152906001019060200180831161099157829003601f168201915b505050505081526020016002820154815250509050806000015181602001518260400151935093509350509193909250565b60008251116109ee57600080fd5b60008151116109fc57600080fd5b600073ffffffffffffffffffffffffffffffffffffffff163373ffffffffffffffffffffffffffffffffffffffff161415610a3657600080fd5b6000600160003373ffffffffffffffffffffffffffffffffffffffff1673ffffffffffffffffffffffffffffffffffffffff1681526020019081526020016000206000018054610a8590611a96565b905011610a9157600080fd5b6000600283604051610aa39190611770565b908152602001604051809103902060009054906101000a900473ffffffffffffffffffffffffffffffffffffffff169050600073ffffffffffffffffffffffffffffffffffffffff168173ffffffffffffffffffffffffffffffffffffffff161415610b0e57600080fd5b6000600160003373ffffffffffffffffffffffffffffffffffffffff1673ffffffffffffffffffffffffffffffffffffffff1681526020019081526020016000206000018054610b5d90611a96565b80601f0160208091040260200160405190810160405280929190818152602001828054610b8990611a96565b8015610bd65780601f10610bab57610100808354040283529160200191610bd6565b820191906000526020600020905b815481529060010190602001808311610bb957829003601f168201915b5050505050905060006040518060400160405280600181526020017f3a0000000000000000000000000000000000000000000000000000000000000081525090506000610c224261102a565b90506000610c3983856111d790919063ffffffff16565b9050610c4e82826111d790919063ffffffff16565b9050610c6383826111d790919063ffffffff16565b9050610c7886826111d790919063ffffffff16565b9050600560008673ffffffffffffffffffffffffffffffffffffffff1673ffffffffffffffffffffffffffffffffffffffff16815260200190815260200160002081908060018154018082558091505060019003906000526020600020016000909190919091509080519060200190610cf2929190611430565b5050505050505050565b6002818051602081018201805184825260208301602085012081835280955050505050506000915054906101000a900473ffffffffffffffffffffffffffffffffffffffff1681565b6060600073ffffffffffffffffffffffffffffffffffffffff163373ffffffffffffffffffffffffffffffffffffffff161415610d8157600080fd5b6000600160003373ffffffffffffffffffffffffffffffffffffffff1673ffffffffffffffffffffffffffffffffffffffff1681526020019081526020016000206000018054610dd090611a96565b905011610ddc57600080fd5b600560003373ffffffffffffffffffffffffffffffffffffffff1673ffffffffffffffffffffffffffffffffffffffff168152602001908152602001600020805480602002602001604051908101604052809291908181526020016000905b82821015610ee7578382906000526020600020018054610e5a90611a96565b80601f0160208091040260200160405190810160405280929190818152602001828054610e8690611a96565b8015610ed35780601f10610ea857610100808354040283529160200191610ed3565b820191906000526020600020905b815481529060010190602001808311610eb657829003601f168201915b505050505081526020019060010190610e3b565b50505050905090565b6004602052806000526040600020600091509050806000015490806001018054610f1990611a96565b80601f0160208091040260200160405190810160405280929190818152602001828054610f4590611a96565b8015610f925780601f10610f6757610100808354040283529160200191610f92565b820191906000526020600020905b815481529060010190602001808311610f7557829003601f168201915b505050505090806002018054610fa790611a96565b80601f0160208091040260200160405190810160405280929190818152602001828054610fd390611a96565b80156110205780601f10610ff557610100808354040283529160200191611020565b820191906000526020600020905b81548152906001019060200180831161100357829003601f168201915b5050505050905083565b60606000821415611072576040518060400160405280600181526020017f300000000000000000000000000000000000000000000000000000000000000081525090506111d2565b600082905060005b600082146110a457808061108d90611ac8565b915050600a8261109d91906119b3565b915061107a565b60008167ffffffffffffffff8111156110e6577f4e487b7100000000000000000000000000000000000000000000000000000000600052604160045260246000fd5b6040519080825280601f01601f1916602001820160405280156111185781602001600182028036833780820191505090505b5090505b600085146111cb5760018261113191906119e4565b9150600a856111409190611b11565b603061114c919061195d565b60f81b818381518110611188577f4e487b7100000000000000000000000000000000000000000000000000000000600052603260045260246000fd5b60200101907effffffffffffffffffffffffffffffffffffffffffffffffffffffffffffff1916908160001a905350600a856111c491906119b3565b945061111c565b8093505050505b919050565b6060600083905060008390506000815183516111f3919061195d565b67ffffffffffffffff811115611232577f4e487b7100000000000000000000000000000000000000000000000000000000600052604160045260246000fd5b6040519080825280601f01601f1916602001820160405280156112645781602001600182028036833780820191505090505b5090506000819050600080600091505b8551821015611348578582815181106112b6577f4e487b7100000000000000000000000000000000000000000000000000000000600052603260045260246000fd5b602001015160f81c60f81b8382806112cd90611ac8565b935081518110611306577f4e487b7100000000000000000000000000000000000000000000000000000000600052603260045260246000fd5b60200101907effffffffffffffffffffffffffffffffffffffffffffffffffffffffffffff1916908160001a905350818061134090611ac8565b925050611274565b600091505b84518210156114215784828151811061138f577f4e487b7100000000000000000000000000000000000000000000000000000000600052603260045260246000fd5b602001015160f81c60f81b8382806113a690611ac8565b9350815181106113df577f4e487b7100000000000000000000000000000000000000000000000000000000600052603260045260246000fd5b60200101907effffffffffffffffffffffffffffffffffffffffffffffffffffffffffffff1916908160001a905350818061141990611ac8565b92505061134d565b82965050505050505092915050565b82805461143c90611a96565b90600052602060002090601f01602090048101928261145e57600085556114a5565b82601f1061147757805160ff19168380011785556114a5565b828001600101855582156114a5579182015b828111156114a4578251825591602001919060010190611489565b5b5090506114b291906114b6565b5090565b5b808211156114cf5760008160009055506001016114b7565b5090565b60006114e66114e1846118bc565b61188b565b9050828152602081018484840111156114fe57600080fd5b611509848285611a54565b509392505050565b600082601f83011261152257600080fd5b81356115328482602086016114d3565b91505092915050565b60008135905061154a81611c0f565b92915050565b60006020828403121561156257600080fd5b600082013567ffffffffffffffff81111561157c57600080fd5b61158884828501611511565b91505092915050565b600080604083850312156115a457600080fd5b600083013567ffffffffffffffff8111156115be57600080fd5b6115ca85828601611511565b925050602083013567ffffffffffffffff8111156115e757600080fd5b6115f385828601611511565b9150509250929050565b60006020828403121561160f57600080fd5b600061161d8482850161153b565b91505092915050565b600061163283836116be565b905092915050565b61164381611a18565b82525050565b6000611654826118fc565b61165e818561191f565b935083602082028501611670856118ec565b8060005b858110156116ac578484038952815161168d8582611626565b945061169883611912565b925060208a01995050600181019050611674565b50829750879550505050505092915050565b60006116c982611907565b6116d38185611930565b93506116e3818560208601611a63565b6116ec81611bfe565b840191505092915050565b600061170282611907565b61170c8185611941565b935061171c818560208601611a63565b61172581611bfe565b840191505092915050565b600061173b82611907565b6117458185611952565b9350611755818560208601611a63565b80840191505092915050565b61176a81611a4a565b82525050565b600061177c8284611730565b915081905092915050565b600060208201905061179c600083018461163a565b92915050565b600060208201905081810360008301526117bc8184611649565b905092915050565b600060208201905081810360008301526117de81846116f7565b905092915050565b6000606082019050818103600083015261180081866116f7565b9050818103602083015261181481856116f7565b90506118236040830184611761565b949350505050565b60006020820190506118406000830184611761565b92915050565b600060608201905061185b6000830186611761565b818103602083015261186d81856116f7565b9050818103604083015261188181846116f7565b9050949350505050565b6000604051905081810181811067ffffffffffffffff821117156118b2576118b1611bcf565b5b8060405250919050565b600067ffffffffffffffff8211156118d7576118d6611bcf565b5b601f19601f8301169050602081019050919050565b6000819050602082019050919050565b600081519050919050565b600081519050919050565b6000602082019050919050565b600082825260208201905092915050565b600082825260208201905092915050565b600082825260208201905092915050565b600081905092915050565b600061196882611a4a565b915061197383611a4a565b9250827fffffffffffffffffffffffffffffffffffffffffffffffffffffffffffffffff038211156119a8576119a7611b42565b5b828201905092915050565b60006119be82611a4a565b91506119c983611a4a565b9250826119d9576119d8611b71565b5b828204905092915050565b60006119ef82611a4a565b91506119fa83611a4a565b925082821015611a0d57611a0c611b42565b5b828203905092915050565b6000611a2382611a2a565b9050919050565b600073ffffffffffffffffffffffffffffffffffffffff82169050919050565b6000819050919050565b82818337600083830152505050565b60005b83811015611a81578082015181840152602081019050611a66565b83811115611a90576000848401525b50505050565b60006002820490506001821680611aae57607f821691505b60208210811415611ac257611ac1611ba0565b5b50919050565b6000611ad382611a4a565b91507fffffffffffffffffffffffffffffffffffffffffffffffffffffffffffffffff821415611b0657611b05611b42565b5b600182019050919050565b6000611b1c82611a4a565b9150611b2783611a4a565b925082611b3757611b36611b71565b5b828206905092915050565b7f4e487b7100000000000000000000000000000000000000000000000000000000600052601160045260246000fd5b7f4e487b7100000000000000000000000000000000000000000000000000000000600052601260045260246000fd5b7f4e487b7100000000000000000000000000000000000000000000000000000000600052602260045260246000fd5b7f4e487b7100000000000000000000000000000000000000000000000000000000600052604160045260246000fd5b6000601f19601f8301169050919050565b611c1881611a4a565b8114611c2357600080fd5b5056fea26469706673582212203c93a455e30d9933328c24464b99772a4060d2c552526e89acf0541dc08eb79864736f6c63430008000033",
  "immutableReferences": {},
  "source": "// SPDX-License-Identifier: MIT\npragma solidity ^0.8.0;\npragma experimental ABIEncoderV2;\n\nlibrary Strings {\n  function concat(string memory _base, string memory _value) internal returns (string memory) {\n    bytes memory _baseBytes = bytes(_base);\n    bytes memory _valueBytes = bytes(_value);\n\n    string memory _tmpValue = new string(_baseBytes.length + _valueBytes.length);\n    bytes memory _newValue = bytes(_tmpValue);\n\n    uint i;\n    uint j;\n\n    for(i=0; i<_baseBytes.length; i++) {\n      _newValue[j++] = _baseBytes[i];\n    }\n\n    for(i=0; i<_valueBytes.length; i++) {\n      _newValue[j++] = _valueBytes[i];\n    }\n\n    return string(_newValue);\n  }\n}\n\ncontract DHire {\n  using Strings for string;\n\n  string public name = \"DHire\";\n\n  // Model\n  struct User {\n    string name;\n    string bio;\n    uint resumeId;\n  }\n\n  struct Resume {\n    uint id;\n    string hash; // to ipfs document\n    string authorName;\n  }\n\n  mapping(address => User) private users;\n  mapping(string => address) public nameToUser;\n\n  uint public resumeCount = 0;\n  mapping(uint => Resume) public resumes;\n\n  // message: `author:timestamp:message`\n  mapping(address => string[]) private messages;\n\n  constructor() {\n  }\n  \n  function registerUser(string memory _username, string memory _bio) public {\n    require(bytes(_username).length > 0);\n    require(msg.sender != address(0));\n\n    require(nameToUser[_username] == address(0));\n\n    users[msg.sender] = User(_username, _bio, 0);\n    nameToUser[_username] = msg.sender;\n  }\n\n  function getUser(string memory _username) public view returns(string memory, string memory, uint) {\n    require(bytes(_username).length > 0);\n    require(msg.sender != address(0));\n    require(nameToUser[_username] != address(0));\n\n    User memory user = users[nameToUser[_username]];\n    return (user.name, user.bio, user.resumeId);\n  }\n\n  function uploadResume(string memory _docHash) public {\n    require(bytes(_docHash).length > 0);\n    require(msg.sender != address(0));\n\n    require(bytes(users[msg.sender].name).length > 0);\n\n    if (users[msg.sender].resumeId <= 0) { // no resume yet, create new\n      resumeCount++;\n      users[msg.sender].resumeId = resumeCount;\n    }\n\n    resumes[users[msg.sender].resumeId] = Resume(users[msg.sender].resumeId, _docHash, users[msg.sender].name);\n  }\n\n  function getMessages() public view returns(string[] memory) {\n    require(msg.sender != address(0));\n    require(bytes(users[msg.sender].name).length > 0);\n    return messages[msg.sender];\n  }\n\n  function sendMessage(string memory _rcvName, string memory _message) public {\n    require(bytes(_rcvName).length > 0);\n    require(bytes(_message).length > 0);\n\n    require(msg.sender != address(0));\n    require(bytes(users[msg.sender].name).length > 0);\n\n    address rcvAddress = nameToUser[_rcvName];\n    require(rcvAddress != address(0));\n\n    string memory senderName = users[msg.sender].name;\n\n    string memory delimeter = \":\";\n    string memory timestamp = toString(block.timestamp);\n    string memory message = senderName.concat(delimeter);\n    message = message.concat(timestamp);\n    message = message.concat(delimeter);\n    message = message.concat(_message);\n    \n    // string memory message = string(concat(bytes(senderName), \":\", bytes(_timestamp), \":\", bytes(_message)));\n    messages[rcvAddress].push(message);\n  }\n\n  // https://github.com/OpenZeppelin/openzeppelin-contracts/blob/master/contracts/utils/Strings.sol#L15-L35\n  function toString(uint value) internal pure returns (string memory) {\n    if (value == 0) {\n        return \"0\";\n    }\n    uint temp = value;\n    uint digits;\n    while (temp != 0) {\n        digits++;\n        temp /= 10;\n    }\n    bytes memory buffer = new bytes(digits);\n    while (value != 0) {\n        digits -= 1;\n        buffer[digits] = bytes1(uint8(48 + uint256(value % 10)));\n        value /= 10;\n    }\n    return string(buffer);\n  }\n}\n",
  "sourcePath": "/Users/prince/projects/hir3/contracts/DHire.sol",
  "compiler": {
    "name": "solc",
    "version": "0.8.0+commit.c7dfd78e.Emscripten.clang"
  },
  "schemaVersion": "3.2.3",
  "updatedAt": "2022-05-06T12:52:38.592Z",
  "devdoc": {
    "kind": "dev",
    "methods": {},
    "version": 1
  },
  "userdoc": {
    "kind": "user",
    "methods": {},
    "version": 1
  }
}