{
  "contractName": "DHire",
  "abi": [
    {
      "inputs": [],
      "stateMutability": "nonpayable",
      "type": "constructor"
    },
    {
      "inputs": [],
      "name": "name",
      "outputs": [
        {
          "internalType": "string",
          "name": "",
          "type": "string"
        }
      ],
      "stateMutability": "view",
      "type": "function",
      "constant": true
    },
    {
      "inputs": [
        {
          "internalType": "string",
          "name": "",
          "type": "string"
        }
      ],
      "name": "nameToUser",
      "outputs": [
        {
          "internalType": "address",
          "name": "",
          "type": "address"
        }
      ],
      "stateMutability": "view",
      "type": "function",
      "constant": true
    },
    {
      "inputs": [],
      "name": "resumeCount",
      "outputs": [
        {
          "internalType": "uint256",
          "name": "",
          "type": "uint256"
        }
      ],
      "stateMutability": "view",
      "type": "function",
      "constant": true
    },
    {
      "inputs": [
        {
          "internalType": "uint256",
          "name": "",
          "type": "uint256"
        }
      ],
      "name": "resumes",
      "outputs": [
        {
          "internalType": "uint256",
          "name": "id",
          "type": "uint256"
        },
        {
          "internalType": "string",
          "name": "hash",
          "type": "string"
        },
        {
          "internalType": "string",
          "name": "authorName",
          "type": "string"
        },
        {
          "internalType": "string",
          "name": "authorBio",
          "type": "string"
        }
      ],
      "stateMutability": "view",
      "type": "function",
      "constant": true
    },
    {
      "inputs": [
        {
          "internalType": "string",
          "name": "_username",
          "type": "string"
        },
        {
          "internalType": "string",
          "name": "_bio",
          "type": "string"
        }
      ],
      "name": "registerUser",
      "outputs": [],
      "stateMutability": "nonpayable",
      "type": "function"
    },
    {
      "inputs": [],
      "name": "getSelf",
      "outputs": [
        {
          "internalType": "string",
          "name": "",
          "type": "string"
        },
        {
          "internalType": "string",
          "name": "",
          "type": "string"
        },
        {
          "internalType": "uint256",
          "name": "",
          "type": "uint256"
        }
      ],
      "stateMutability": "view",
      "type": "function",
      "constant": true
    },
    {
      "inputs": [
        {
          "internalType": "string",
          "name": "_username",
          "type": "string"
        }
      ],
      "name": "getUser",
      "outputs": [
        {
          "internalType": "string",
          "name": "",
          "type": "string"
        },
        {
          "internalType": "string",
          "name": "",
          "type": "string"
        },
        {
          "internalType": "uint256",
          "name": "",
          "type": "uint256"
        }
      ],
      "stateMutability": "view",
      "type": "function",
      "constant": true
    },
    {
      "inputs": [
        {
          "internalType": "string",
          "name": "_docHash",
          "type": "string"
        }
      ],
      "name": "uploadResume",
      "outputs": [],
      "stateMutability": "nonpayable",
      "type": "function"
    },
    {
      "inputs": [
        {
          "internalType": "string",
          "name": "_bio",
          "type": "string"
        }
      ],
      "name": "updateBio",
      "outputs": [],
      "stateMutability": "nonpayable",
      "type": "function"
    },
    {
      "inputs": [],
      "name": "getMessages",
      "outputs": [
        {
          "internalType": "string[]",
          "name": "",
          "type": "string[]"
        }
      ],
      "stateMutability": "view",
      "type": "function",
      "constant": true
    },
    {
      "inputs": [
        {
          "internalType": "string",
          "name": "_rcvName",
          "type": "string"
        },
        {
          "internalType": "string",
          "name": "_message",
          "type": "string"
        }
      ],
      "name": "sendMessage",
      "outputs": [],
      "stateMutability": "nonpayable",
      "type": "function"
    }
  ],
  "bytecode": "0x60806040526040518060400160405280600581526020017f444869726500000000000000000000000000000000000000000000000000000081525060009080519060200190620000519291906200006b565b5060006003553480156200006457600080fd5b5062000180565b82805462000079906200011b565b90600052602060002090601f0160209004810192826200009d5760008555620000e9565b82601f10620000b857805160ff1916838001178555620000e9565b82800160010185558215620000e9579182015b82811115620000e8578251825591602001919060010190620000cb565b5b509050620000f89190620000fc565b5090565b5b8082111562000117576000816000905550600101620000fd565b5090565b600060028204905060018216806200013457607f821691505b602082108114156200014b576200014a62000151565b5b50919050565b7f4e487b7100000000000000000000000000000000000000000000000000000000600052602260045260246000fd5b61234f80620001906000396000f3fe608060405234801561001057600080fd5b50600436106100a95760003560e01c8063467fba0f11610071578063467fba0f1461015457806348305c91146101705780635ff6cbf3146101a057806376487b38146101be578063d7334ef3146101da578063e237f75b1461020d576100a9565b806306fdde03146100ae5780631d2e4afd146100cc5780632e323961146100e857806330b759dd1461010457806331feb67114610122575b600080fd5b6100b661022d565b6040516100c39190611ea2565b60405180910390f35b6100e660048036038101906100e19190611c6f565b6102bb565b005b61010260048036038101906100fd9190611c2e565b61047d565b005b61010c61087f565b6040516101199190611f09565b60405180910390f35b61013c60048036038101906101379190611c2e565b610885565b60405161014b93929190611ec4565b60405180910390f35b61016e60048036038101906101699190611c6f565b610b20565b005b61018a60048036038101906101859190611c2e565b610f13565b6040516101979190611e65565b60405180910390f35b6101a8610f5c565b6040516101b59190611e80565b60405180910390f35b6101d860048036038101906101d39190611c2e565b611107565b005b6101f460048036038101906101ef9190611cdb565b6112bd565b6040516102049493929190611f24565b60405180910390f35b610215611485565b60405161022493929190611ec4565b60405180910390f35b6000805461023a90612189565b80601f016020809104026020016040519081016040528092919081815260200182805461026690612189565b80156102b35780601f10610288576101008083540402835291602001916102b3565b820191906000526020600020905b81548152906001019060200180831161029657829003601f168201915b505050505081565b60008251116102c957600080fd5b600073ffffffffffffffffffffffffffffffffffffffff163373ffffffffffffffffffffffffffffffffffffffff16141561030357600080fd5b600073ffffffffffffffffffffffffffffffffffffffff1660028360405161032b9190611e4e565b908152602001604051809103902060009054906101000a900473ffffffffffffffffffffffffffffffffffffffff1673ffffffffffffffffffffffffffffffffffffffff161461037a57600080fd5b60405180606001604052808381526020018281526020016000815250600160003373ffffffffffffffffffffffffffffffffffffffff1673ffffffffffffffffffffffffffffffffffffffff16815260200190815260200160002060008201518160000190805190602001906103f1929190611b0e565b50602082015181600101908051906020019061040e929190611b0e565b50604082015181600201559050503360028360405161042d9190611e4e565b908152602001604051809103902060006101000a81548173ffffffffffffffffffffffffffffffffffffffff021916908373ffffffffffffffffffffffffffffffffffffffff1602179055505050565b600081511161048b57600080fd5b600073ffffffffffffffffffffffffffffffffffffffff163373ffffffffffffffffffffffffffffffffffffffff1614156104c557600080fd5b6000600160003373ffffffffffffffffffffffffffffffffffffffff1673ffffffffffffffffffffffffffffffffffffffff168152602001908152602001600020600001805461051490612189565b90501161052057600080fd5b6000600160003373ffffffffffffffffffffffffffffffffffffffff1673ffffffffffffffffffffffffffffffffffffffff16815260200190815260200160002060020154116105cc576003600081548092919061057d906121bb565b9190505550600354600160003373ffffffffffffffffffffffffffffffffffffffff1673ffffffffffffffffffffffffffffffffffffffff168152602001908152602001600020600201819055505b6040518060800160405280600160003373ffffffffffffffffffffffffffffffffffffffff1673ffffffffffffffffffffffffffffffffffffffff168152602001908152602001600020600201548152602001828152602001600160003373ffffffffffffffffffffffffffffffffffffffff1673ffffffffffffffffffffffffffffffffffffffff168152602001908152602001600020600001805461067290612189565b80601f016020809104026020016040519081016040528092919081815260200182805461069e90612189565b80156106eb5780601f106106c0576101008083540402835291602001916106eb565b820191906000526020600020905b8154815290600101906020018083116106ce57829003601f168201915b50505050508152602001600160003373ffffffffffffffffffffffffffffffffffffffff1673ffffffffffffffffffffffffffffffffffffffff168152602001908152602001600020600101805461074290612189565b80601f016020809104026020016040519081016040528092919081815260200182805461076e90612189565b80156107bb5780601f10610790576101008083540402835291602001916107bb565b820191906000526020600020905b81548152906001019060200180831161079e57829003601f168201915b505050505081525060046000600160003373ffffffffffffffffffffffffffffffffffffffff1673ffffffffffffffffffffffffffffffffffffffff16815260200190815260200160002060020154815260200190815260200160002060008201518160000155602082015181600101908051906020019061083e929190611b0e565b50604082015181600201908051906020019061085b929190611b0e565b506060820151816003019080519060200190610878929190611b0e565b5090505050565b60035481565b60608060008084511161089757600080fd5b600073ffffffffffffffffffffffffffffffffffffffff163373ffffffffffffffffffffffffffffffffffffffff1614156108d157600080fd5b600073ffffffffffffffffffffffffffffffffffffffff166002856040516108f99190611e4e565b908152602001604051809103902060009054906101000a900473ffffffffffffffffffffffffffffffffffffffff1673ffffffffffffffffffffffffffffffffffffffff16141561094957600080fd5b60006001600060028760405161095f9190611e4e565b908152602001604051809103902060009054906101000a900473ffffffffffffffffffffffffffffffffffffffff1673ffffffffffffffffffffffffffffffffffffffff1673ffffffffffffffffffffffffffffffffffffffff1681526020019081526020016000206040518060600160405290816000820180546109e390612189565b80601f0160208091040260200160405190810160405280929190818152602001828054610a0f90612189565b8015610a5c5780601f10610a3157610100808354040283529160200191610a5c565b820191906000526020600020905b815481529060010190602001808311610a3f57829003601f168201915b50505050508152602001600182018054610a7590612189565b80601f0160208091040260200160405190810160405280929190818152602001828054610aa190612189565b8015610aee5780601f10610ac357610100808354040283529160200191610aee565b820191906000526020600020905b815481529060010190602001808311610ad157829003601f168201915b505050505081526020016002820154815250509050806000015181602001518260400151935093509350509193909250565b6000825111610b2e57600080fd5b6000815111610b3c57600080fd5b600073ffffffffffffffffffffffffffffffffffffffff163373ffffffffffffffffffffffffffffffffffffffff161415610b7657600080fd5b6000600160003373ffffffffffffffffffffffffffffffffffffffff1673ffffffffffffffffffffffffffffffffffffffff1681526020019081526020016000206000018054610bc590612189565b905011610bd157600080fd5b6000600283604051610be39190611e4e565b908152602001604051809103902060009054906101000a900473ffffffffffffffffffffffffffffffffffffffff169050600073ffffffffffffffffffffffffffffffffffffffff168173ffffffffffffffffffffffffffffffffffffffff161415610c4e57600080fd5b6000600160003373ffffffffffffffffffffffffffffffffffffffff1673ffffffffffffffffffffffffffffffffffffffff1681526020019081526020016000206000018054610c9d90612189565b80601f0160208091040260200160405190810160405280929190818152602001828054610cc990612189565b8015610d165780601f10610ceb57610100808354040283529160200191610d16565b820191906000526020600020905b815481529060010190602001808311610cf957829003601f168201915b5050505050905060006040518060400160405280600181526020017f3a0000000000000000000000000000000000000000000000000000000000000081525090506000610d6242611708565b90506000610d7983856118b590919063ffffffff16565b9050610d8e87826118b590919063ffffffff16565b9050610da383826118b590919063ffffffff16565b9050610db882826118b590919063ffffffff16565b9050610dcd83826118b590919063ffffffff16565b9050610de286826118b590919063ffffffff16565b9050600560008673ffffffffffffffffffffffffffffffffffffffff1673ffffffffffffffffffffffffffffffffffffffff16815260200190815260200160002081908060018154018082558091505060019003906000526020600020016000909190919091509080519060200190610e5c929190611b0e565b503373ffffffffffffffffffffffffffffffffffffffff168573ffffffffffffffffffffffffffffffffffffffff1614610f0a57600560003373ffffffffffffffffffffffffffffffffffffffff1673ffffffffffffffffffffffffffffffffffffffff16815260200190815260200160002081908060018154018082558091505060019003906000526020600020016000909190919091509080519060200190610f08929190611b0e565b505b50505050505050565b6002818051602081018201805184825260208301602085012081835280955050505050506000915054906101000a900473ffffffffffffffffffffffffffffffffffffffff1681565b6060600073ffffffffffffffffffffffffffffffffffffffff163373ffffffffffffffffffffffffffffffffffffffff161415610f9857600080fd5b6000600160003373ffffffffffffffffffffffffffffffffffffffff1673ffffffffffffffffffffffffffffffffffffffff1681526020019081526020016000206000018054610fe790612189565b905011610ff357600080fd5b600560003373ffffffffffffffffffffffffffffffffffffffff1673ffffffffffffffffffffffffffffffffffffffff168152602001908152602001600020805480602002602001604051908101604052809291908181526020016000905b828210156110fe57838290600052602060002001805461107190612189565b80601f016020809104026020016040519081016040528092919081815260200182805461109d90612189565b80156110ea5780601f106110bf576101008083540402835291602001916110ea565b820191906000526020600020905b8154815290600101906020018083116110cd57829003601f168201915b505050505081526020019060010190611052565b50505050905090565b600081511161111557600080fd5b600073ffffffffffffffffffffffffffffffffffffffff163373ffffffffffffffffffffffffffffffffffffffff16141561114f57600080fd5b6000600160003373ffffffffffffffffffffffffffffffffffffffff1673ffffffffffffffffffffffffffffffffffffffff168152602001908152602001600020600001805461119e90612189565b9050116111aa57600080fd5b80600160003373ffffffffffffffffffffffffffffffffffffffff1673ffffffffffffffffffffffffffffffffffffffff1681526020019081526020016000206001019080519060200190611200929190611b0e565b506000600160003373ffffffffffffffffffffffffffffffffffffffff1673ffffffffffffffffffffffffffffffffffffffff1681526020019081526020016000206002015411156112ba578060046000600160003373ffffffffffffffffffffffffffffffffffffffff1673ffffffffffffffffffffffffffffffffffffffff16815260200190815260200160002060020154815260200190815260200160002060030190805190602001906112b8929190611b0e565b505b50565b60046020528060005260406000206000915090508060000154908060010180546112e690612189565b80601f016020809104026020016040519081016040528092919081815260200182805461131290612189565b801561135f5780601f106113345761010080835404028352916020019161135f565b820191906000526020600020905b81548152906001019060200180831161134257829003601f168201915b50505050509080600201805461137490612189565b80601f01602080910402602001604051908101604052809291908181526020018280546113a090612189565b80156113ed5780601f106113c2576101008083540402835291602001916113ed565b820191906000526020600020905b8154815290600101906020018083116113d057829003601f168201915b50505050509080600301805461140290612189565b80601f016020809104026020016040519081016040528092919081815260200182805461142e90612189565b801561147b5780601f106114505761010080835404028352916020019161147b565b820191906000526020600020905b81548152906001019060200180831161145e57829003601f168201915b5050505050905084565b60608060008073ffffffffffffffffffffffffffffffffffffffff163373ffffffffffffffffffffffffffffffffffffffff1614156114c357600080fd5b6000600160003373ffffffffffffffffffffffffffffffffffffffff1673ffffffffffffffffffffffffffffffffffffffff168152602001908152602001600020600001805461151290612189565b90501161151e57600080fd5b600160003373ffffffffffffffffffffffffffffffffffffffff1673ffffffffffffffffffffffffffffffffffffffff168152602001908152602001600020600001600160003373ffffffffffffffffffffffffffffffffffffffff1673ffffffffffffffffffffffffffffffffffffffff168152602001908152602001600020600101600160003373ffffffffffffffffffffffffffffffffffffffff1673ffffffffffffffffffffffffffffffffffffffff168152602001908152602001600020600201548280546115f190612189565b80601f016020809104026020016040519081016040528092919081815260200182805461161d90612189565b801561166a5780601f1061163f5761010080835404028352916020019161166a565b820191906000526020600020905b81548152906001019060200180831161164d57829003601f168201915b5050505050925081805461167d90612189565b80601f01602080910402602001604051908101604052809291908181526020018280546116a990612189565b80156116f65780601f106116cb576101008083540402835291602001916116f6565b820191906000526020600020905b8154815290600101906020018083116116d957829003601f168201915b50505050509150925092509250909192565b60606000821415611750576040518060400160405280600181526020017f300000000000000000000000000000000000000000000000000000000000000081525090506118b0565b600082905060005b6000821461178257808061176b906121bb565b915050600a8261177b91906120a6565b9150611758565b60008167ffffffffffffffff8111156117c4577f4e487b7100000000000000000000000000000000000000000000000000000000600052604160045260246000fd5b6040519080825280601f01601f1916602001820160405280156117f65781602001600182028036833780820191505090505b5090505b600085146118a95760018261180f91906120d7565b9150600a8561181e9190612204565b603061182a9190612050565b60f81b818381518110611866577f4e487b7100000000000000000000000000000000000000000000000000000000600052603260045260246000fd5b60200101907effffffffffffffffffffffffffffffffffffffffffffffffffffffffffffff1916908160001a905350600a856118a291906120a6565b94506117fa565b8093505050505b919050565b6060600083905060008390506000815183516118d19190612050565b67ffffffffffffffff811115611910577f4e487b7100000000000000000000000000000000000000000000000000000000600052604160045260246000fd5b6040519080825280601f01601f1916602001820160405280156119425781602001600182028036833780820191505090505b5090506000819050600080600091505b8551821015611a2657858281518110611994577f4e487b7100000000000000000000000000000000000000000000000000000000600052603260045260246000fd5b602001015160f81c60f81b8382806119ab906121bb565b9350815181106119e4577f4e487b7100000000000000000000000000000000000000000000000000000000600052603260045260246000fd5b60200101907effffffffffffffffffffffffffffffffffffffffffffffffffffffffffffff1916908160001a9053508180611a1e906121bb565b925050611952565b600091505b8451821015611aff57848281518110611a6d577f4e487b7100000000000000000000000000000000000000000000000000000000600052603260045260246000fd5b602001015160f81c60f81b838280611a84906121bb565b935081518110611abd577f4e487b7100000000000000000000000000000000000000000000000000000000600052603260045260246000fd5b60200101907effffffffffffffffffffffffffffffffffffffffffffffffffffffffffffff1916908160001a9053508180611af7906121bb565b925050611a2b565b82965050505050505092915050565b828054611b1a90612189565b90600052602060002090601f016020900481019282611b3c5760008555611b83565b82601f10611b5557805160ff1916838001178555611b83565b82800160010185558215611b83579182015b82811115611b82578251825591602001919060010190611b67565b5b509050611b909190611b94565b5090565b5b80821115611bad576000816000905550600101611b95565b5090565b6000611bc4611bbf84611faf565b611f7e565b905082815260208101848484011115611bdc57600080fd5b611be7848285612147565b509392505050565b600082601f830112611c0057600080fd5b8135611c10848260208601611bb1565b91505092915050565b600081359050611c2881612302565b92915050565b600060208284031215611c4057600080fd5b600082013567ffffffffffffffff811115611c5a57600080fd5b611c6684828501611bef565b91505092915050565b60008060408385031215611c8257600080fd5b600083013567ffffffffffffffff811115611c9c57600080fd5b611ca885828601611bef565b925050602083013567ffffffffffffffff811115611cc557600080fd5b611cd185828601611bef565b9150509250929050565b600060208284031215611ced57600080fd5b6000611cfb84828501611c19565b91505092915050565b6000611d108383611d9c565b905092915050565b611d218161210b565b82525050565b6000611d3282611fef565b611d3c8185612012565b935083602082028501611d4e85611fdf565b8060005b85811015611d8a5784840389528151611d6b8582611d04565b9450611d7683612005565b925060208a01995050600181019050611d52565b50829750879550505050505092915050565b6000611da782611ffa565b611db18185612023565b9350611dc1818560208601612156565b611dca816122f1565b840191505092915050565b6000611de082611ffa565b611dea8185612034565b9350611dfa818560208601612156565b611e03816122f1565b840191505092915050565b6000611e1982611ffa565b611e238185612045565b9350611e33818560208601612156565b80840191505092915050565b611e488161213d565b82525050565b6000611e5a8284611e0e565b915081905092915050565b6000602082019050611e7a6000830184611d18565b92915050565b60006020820190508181036000830152611e9a8184611d27565b905092915050565b60006020820190508181036000830152611ebc8184611dd5565b905092915050565b60006060820190508181036000830152611ede8186611dd5565b90508181036020830152611ef28185611dd5565b9050611f016040830184611e3f565b949350505050565b6000602082019050611f1e6000830184611e3f565b92915050565b6000608082019050611f396000830187611e3f565b8181036020830152611f4b8186611dd5565b90508181036040830152611f5f8185611dd5565b90508181036060830152611f738184611dd5565b905095945050505050565b6000604051905081810181811067ffffffffffffffff82111715611fa557611fa46122c2565b5b8060405250919050565b600067ffffffffffffffff821115611fca57611fc96122c2565b5b601f19601f8301169050602081019050919050565b6000819050602082019050919050565b600081519050919050565b600081519050919050565b6000602082019050919050565b600082825260208201905092915050565b600082825260208201905092915050565b600082825260208201905092915050565b600081905092915050565b600061205b8261213d565b91506120668361213d565b9250827fffffffffffffffffffffffffffffffffffffffffffffffffffffffffffffffff0382111561209b5761209a612235565b5b828201905092915050565b60006120b18261213d565b91506120bc8361213d565b9250826120cc576120cb612264565b5b828204905092915050565b60006120e28261213d565b91506120ed8361213d565b925082821015612100576120ff612235565b5b828203905092915050565b60006121168261211d565b9050919050565b600073ffffffffffffffffffffffffffffffffffffffff82169050919050565b6000819050919050565b82818337600083830152505050565b60005b83811015612174578082015181840152602081019050612159565b83811115612183576000848401525b50505050565b600060028204905060018216806121a157607f821691505b602082108114156121b5576121b4612293565b5b50919050565b60006121c68261213d565b91507fffffffffffffffffffffffffffffffffffffffffffffffffffffffffffffffff8214156121f9576121f8612235565b5b600182019050919050565b600061220f8261213d565b915061221a8361213d565b92508261222a57612229612264565b5b828206905092915050565b7f4e487b7100000000000000000000000000000000000000000000000000000000600052601160045260246000fd5b7f4e487b7100000000000000000000000000000000000000000000000000000000600052601260045260246000fd5b7f4e487b7100000000000000000000000000000000000000000000000000000000600052602260045260246000fd5b7f4e487b7100000000000000000000000000000000000000000000000000000000600052604160045260246000fd5b6000601f19601f8301169050919050565b61230b8161213d565b811461231657600080fd5b5056fea2646970667358221220d1f4e3407d82de133b98b8d0d6fe706b88747f242986e994e07d046e9e1a81ec64736f6c63430008000033",
  "immutableReferences": {},
  "source": "// SPDX-License-Identifier: MIT\npragma solidity ^0.8.0;\n\nlibrary Strings {\n  function concat(string memory _base, string memory _value) internal returns (string memory) {\n    bytes memory _baseBytes = bytes(_base);\n    bytes memory _valueBytes = bytes(_value);\n\n    string memory _tmpValue = new string(_baseBytes.length + _valueBytes.length);\n    bytes memory _newValue = bytes(_tmpValue);\n\n    uint i;\n    uint j;\n\n    for(i=0; i<_baseBytes.length; i++) {\n      _newValue[j++] = _baseBytes[i];\n    }\n\n    for(i=0; i<_valueBytes.length; i++) {\n      _newValue[j++] = _valueBytes[i];\n    }\n\n    return string(_newValue);\n  }\n}\n\ncontract DHire {\n  using Strings for string;\n\n  string public name = \"DHire\";\n\n  // Model\n  struct User {\n    string name;\n    string bio;\n    uint resumeId;\n  }\n\n  struct Resume {\n    uint id;\n    string hash; // to ipfs document\n    string authorName;\n    string authorBio;\n  }\n\n  mapping(address => User) private users;\n  mapping(string => address) public nameToUser;\n\n  uint public resumeCount = 0;\n  mapping(uint => Resume) public resumes;\n\n  // message: `author:timestamp:message`\n  mapping(address => string[]) private messages;\n\n  constructor() {\n  }\n  \n  function registerUser(string memory _username, string memory _bio) public {\n    require(bytes(_username).length > 0);\n    require(msg.sender != address(0));\n\n    require(nameToUser[_username] == address(0));\n\n    users[msg.sender] = User(_username, _bio, 0);\n    nameToUser[_username] = msg.sender;\n  }\n\n  function getSelf() public view returns(string memory, string memory, uint) {\n    require(msg.sender != address(0));\n    require(bytes(users[msg.sender].name).length > 0);\n\n    return (users[msg.sender].name, users[msg.sender].bio, users[msg.sender].resumeId);\n  }\n\n  function getUser(string memory _username) public view returns(string memory, string memory, uint) {\n    require(bytes(_username).length > 0);\n    require(msg.sender != address(0));\n    require(nameToUser[_username] != address(0));\n\n    User memory user = users[nameToUser[_username]];\n    return (user.name, user.bio, user.resumeId);\n  }\n\n  function uploadResume(string memory _docHash) public {\n    require(bytes(_docHash).length > 0);\n    require(msg.sender != address(0));\n\n    require(bytes(users[msg.sender].name).length > 0);\n\n    if (users[msg.sender].resumeId <= 0) { // no resume yet, create new\n      resumeCount++;\n      users[msg.sender].resumeId = resumeCount;\n    }\n\n    resumes[users[msg.sender].resumeId] = Resume(users[msg.sender].resumeId, _docHash, users[msg.sender].name, users[msg.sender].bio);\n  }\n\n  function updateBio(string memory _bio) public {\n    require(bytes(_bio).length > 0);\n    require(msg.sender != address(0));\n\n    require(bytes(users[msg.sender].name).length > 0);\n\n    users[msg.sender].bio = _bio;\n    if (users[msg.sender].resumeId > 0) { // update bio in resume as well\n      resumes[users[msg.sender].resumeId].authorBio = _bio;\n    }\n  }\n\n  function getMessages() public view returns(string[] memory) {\n    require(msg.sender != address(0));\n    require(bytes(users[msg.sender].name).length > 0);\n    return messages[msg.sender];\n  }\n\n  function sendMessage(string memory _rcvName, string memory _message) public {\n    require(bytes(_rcvName).length > 0);\n    require(bytes(_message).length > 0);\n\n    require(msg.sender != address(0));\n    require(bytes(users[msg.sender].name).length > 0);\n\n    address rcvAddress = nameToUser[_rcvName];\n    require(rcvAddress != address(0));\n\n    string memory senderName = users[msg.sender].name;\n\n    string memory delimeter = \":\";\n    string memory timestamp = toString(block.timestamp);\n    string memory message = senderName.concat(delimeter);\n    message = message.concat(_rcvName);\n    message = message.concat(delimeter);\n    message = message.concat(timestamp);\n    message = message.concat(delimeter);\n    message = message.concat(_message);\n    \n    // string memory message = string(concat(bytes(senderName), \":\", bytes(_timestamp), \":\", bytes(_message)));\n    messages[rcvAddress].push(message);\n    if (rcvAddress != msg.sender) {\n        messages[msg.sender].push(message);\n    }\n  }\n\n  // https://github.com/OpenZeppelin/openzeppelin-contracts/blob/master/contracts/utils/Strings.sol#L15-L35\n  function toString(uint value) internal pure returns (string memory) {\n    if (value == 0) {\n        return \"0\";\n    }\n    uint temp = value;\n    uint digits;\n    while (temp != 0) {\n        digits++;\n        temp /= 10;\n    }\n    bytes memory buffer = new bytes(digits);\n    while (value != 0) {\n        digits -= 1;\n        buffer[digits] = bytes1(uint8(48 + uint256(value % 10)));\n        value /= 10;\n    }\n    return string(buffer);\n  }\n}\n",
  "sourcePath": "/Users/prince/projects/Hir3/contracts/DHire.sol",
  "compiler": {
    "name": "solc",
    "version": "0.8.0+commit.c7dfd78e.Emscripten.clang"
  },
  "schemaVersion": "3.2.3",
  "updatedAt": "2022-05-08T02:32:19.977Z",
  "networkType": "ethereum",
  "devdoc": {
    "kind": "dev",
    "methods": {},
    "version": 1
  },
  "userdoc": {
    "kind": "user",
    "methods": {},
    "version": 1
  }
}