{
  "contractName": "DHire",
  "abi": [
    {
      "inputs": [],
      "stateMutability": "nonpayable",
      "type": "constructor"
    },
    {
      "inputs": [],
      "name": "name",
      "outputs": [
        {
          "internalType": "string",
          "name": "",
          "type": "string"
        }
      ],
      "stateMutability": "view",
      "type": "function",
      "constant": true
    },
    {
      "inputs": [
        {
          "internalType": "string",
          "name": "",
          "type": "string"
        }
      ],
      "name": "nameToUser",
      "outputs": [
        {
          "internalType": "address",
          "name": "",
          "type": "address"
        }
      ],
      "stateMutability": "view",
      "type": "function",
      "constant": true
    },
    {
      "inputs": [],
      "name": "resumeCount",
      "outputs": [
        {
          "internalType": "uint256",
          "name": "",
          "type": "uint256"
        }
      ],
      "stateMutability": "view",
      "type": "function",
      "constant": true
    },
    {
      "inputs": [
        {
          "internalType": "uint256",
          "name": "",
          "type": "uint256"
        }
      ],
      "name": "resumes",
      "outputs": [
        {
          "internalType": "uint256",
          "name": "id",
          "type": "uint256"
        },
        {
          "internalType": "string",
          "name": "hash",
          "type": "string"
        },
        {
          "internalType": "string",
          "name": "authorName",
          "type": "string"
        },
        {
          "internalType": "string",
          "name": "authorBio",
          "type": "string"
        }
      ],
      "stateMutability": "view",
      "type": "function",
      "constant": true
    },
    {
      "inputs": [
        {
          "internalType": "string",
          "name": "_username",
          "type": "string"
        },
        {
          "internalType": "string",
          "name": "_bio",
          "type": "string"
        }
      ],
      "name": "registerUser",
      "outputs": [],
      "stateMutability": "nonpayable",
      "type": "function"
    },
    {
      "inputs": [],
      "name": "getSelf",
      "outputs": [
        {
          "internalType": "string",
          "name": "",
          "type": "string"
        },
        {
          "internalType": "string",
          "name": "",
          "type": "string"
        },
        {
          "internalType": "uint256",
          "name": "",
          "type": "uint256"
        }
      ],
      "stateMutability": "view",
      "type": "function",
      "constant": true
    },
    {
      "inputs": [
        {
          "internalType": "string",
          "name": "_username",
          "type": "string"
        }
      ],
      "name": "getUser",
      "outputs": [
        {
          "internalType": "string",
          "name": "",
          "type": "string"
        },
        {
          "internalType": "string",
          "name": "",
          "type": "string"
        },
        {
          "internalType": "uint256",
          "name": "",
          "type": "uint256"
        }
      ],
      "stateMutability": "view",
      "type": "function",
      "constant": true
    },
    {
      "inputs": [
        {
          "internalType": "string",
          "name": "_docHash",
          "type": "string"
        }
      ],
      "name": "uploadResume",
      "outputs": [],
      "stateMutability": "nonpayable",
      "type": "function"
    },
    {
      "inputs": [],
      "name": "getMessages",
      "outputs": [
        {
          "internalType": "string[]",
          "name": "",
          "type": "string[]"
        }
      ],
      "stateMutability": "view",
      "type": "function",
      "constant": true
    },
    {
      "inputs": [
        {
          "internalType": "string",
          "name": "_rcvName",
          "type": "string"
        },
        {
          "internalType": "string",
          "name": "_message",
          "type": "string"
        }
      ],
      "name": "sendMessage",
      "outputs": [],
      "stateMutability": "nonpayable",
      "type": "function"
    }
  ],
  "bytecode": "0x60806040526040518060400160405280600581526020017f444869726500000000000000000000000000000000000000000000000000000081525060009080519060200190620000519291906200006b565b5060006003553480156200006457600080fd5b5062000180565b82805462000079906200011b565b90600052602060002090601f0160209004810192826200009d5760008555620000e9565b82601f10620000b857805160ff1916838001178555620000e9565b82800160010185558215620000e9579182015b82811115620000e8578251825591602001919060010190620000cb565b5b509050620000f89190620000fc565b5090565b5b8082111562000117576000816000905550600101620000fd565b5090565b600060028204905060018216806200013457607f821691505b602082108114156200014b576200014a62000151565b5b50919050565b7f4e487b7100000000000000000000000000000000000000000000000000000000600052602260045260246000fd5b61209b80620001906000396000f3fe608060405234801561001057600080fd5b506004361061009e5760003560e01c8063467fba0f11610066578063467fba0f1461014957806348305c91146101655780635ff6cbf314610195578063d7334ef3146101b3578063e237f75b146101e65761009e565b806306fdde03146100a35780631d2e4afd146100c15780632e323961146100dd57806330b759dd146100f957806331feb67114610117575b600080fd5b6100ab610206565b6040516100b89190611bee565b60405180910390f35b6100db60048036038101906100d691906119bb565b610294565b005b6100f760048036038101906100f2919061197a565b610456565b005b610101610858565b60405161010e9190611c55565b60405180910390f35b610131600480360381019061012c919061197a565b61085e565b60405161014093929190611c10565b60405180910390f35b610163600480360381019061015e91906119bb565b610af9565b005b61017f600480360381019061017a919061197a565b610e15565b60405161018c9190611bb1565b60405180910390f35b61019d610e5e565b6040516101aa9190611bcc565b60405180910390f35b6101cd60048036038101906101c89190611a27565b611009565b6040516101dd9493929190611c70565b60405180910390f35b6101ee6111d1565b6040516101fd93929190611c10565b60405180910390f35b6000805461021390611ed5565b80601f016020809104026020016040519081016040528092919081815260200182805461023f90611ed5565b801561028c5780601f106102615761010080835404028352916020019161028c565b820191906000526020600020905b81548152906001019060200180831161026f57829003601f168201915b505050505081565b60008251116102a257600080fd5b600073ffffffffffffffffffffffffffffffffffffffff163373ffffffffffffffffffffffffffffffffffffffff1614156102dc57600080fd5b600073ffffffffffffffffffffffffffffffffffffffff166002836040516103049190611b9a565b908152602001604051809103902060009054906101000a900473ffffffffffffffffffffffffffffffffffffffff1673ffffffffffffffffffffffffffffffffffffffff161461035357600080fd5b60405180606001604052808381526020018281526020016000815250600160003373ffffffffffffffffffffffffffffffffffffffff1673ffffffffffffffffffffffffffffffffffffffff16815260200190815260200160002060008201518160000190805190602001906103ca92919061185a565b5060208201518160010190805190602001906103e792919061185a565b5060408201518160020155905050336002836040516104069190611b9a565b908152602001604051809103902060006101000a81548173ffffffffffffffffffffffffffffffffffffffff021916908373ffffffffffffffffffffffffffffffffffffffff1602179055505050565b600081511161046457600080fd5b600073ffffffffffffffffffffffffffffffffffffffff163373ffffffffffffffffffffffffffffffffffffffff16141561049e57600080fd5b6000600160003373ffffffffffffffffffffffffffffffffffffffff1673ffffffffffffffffffffffffffffffffffffffff16815260200190815260200160002060000180546104ed90611ed5565b9050116104f957600080fd5b6000600160003373ffffffffffffffffffffffffffffffffffffffff1673ffffffffffffffffffffffffffffffffffffffff16815260200190815260200160002060020154116105a5576003600081548092919061055690611f07565b9190505550600354600160003373ffffffffffffffffffffffffffffffffffffffff1673ffffffffffffffffffffffffffffffffffffffff168152602001908152602001600020600201819055505b6040518060800160405280600160003373ffffffffffffffffffffffffffffffffffffffff1673ffffffffffffffffffffffffffffffffffffffff168152602001908152602001600020600201548152602001828152602001600160003373ffffffffffffffffffffffffffffffffffffffff1673ffffffffffffffffffffffffffffffffffffffff168152602001908152602001600020600001805461064b90611ed5565b80601f016020809104026020016040519081016040528092919081815260200182805461067790611ed5565b80156106c45780601f10610699576101008083540402835291602001916106c4565b820191906000526020600020905b8154815290600101906020018083116106a757829003601f168201915b50505050508152602001600160003373ffffffffffffffffffffffffffffffffffffffff1673ffffffffffffffffffffffffffffffffffffffff168152602001908152602001600020600101805461071b90611ed5565b80601f016020809104026020016040519081016040528092919081815260200182805461074790611ed5565b80156107945780601f1061076957610100808354040283529160200191610794565b820191906000526020600020905b81548152906001019060200180831161077757829003601f168201915b505050505081525060046000600160003373ffffffffffffffffffffffffffffffffffffffff1673ffffffffffffffffffffffffffffffffffffffff16815260200190815260200160002060020154815260200190815260200160002060008201518160000155602082015181600101908051906020019061081792919061185a565b50604082015181600201908051906020019061083492919061185a565b50606082015181600301908051906020019061085192919061185a565b5090505050565b60035481565b60608060008084511161087057600080fd5b600073ffffffffffffffffffffffffffffffffffffffff163373ffffffffffffffffffffffffffffffffffffffff1614156108aa57600080fd5b600073ffffffffffffffffffffffffffffffffffffffff166002856040516108d29190611b9a565b908152602001604051809103902060009054906101000a900473ffffffffffffffffffffffffffffffffffffffff1673ffffffffffffffffffffffffffffffffffffffff16141561092257600080fd5b6000600160006002876040516109389190611b9a565b908152602001604051809103902060009054906101000a900473ffffffffffffffffffffffffffffffffffffffff1673ffffffffffffffffffffffffffffffffffffffff1673ffffffffffffffffffffffffffffffffffffffff1681526020019081526020016000206040518060600160405290816000820180546109bc90611ed5565b80601f01602080910402602001604051908101604052809291908181526020018280546109e890611ed5565b8015610a355780601f10610a0a57610100808354040283529160200191610a35565b820191906000526020600020905b815481529060010190602001808311610a1857829003601f168201915b50505050508152602001600182018054610a4e90611ed5565b80601f0160208091040260200160405190810160405280929190818152602001828054610a7a90611ed5565b8015610ac75780601f10610a9c57610100808354040283529160200191610ac7565b820191906000526020600020905b815481529060010190602001808311610aaa57829003601f168201915b505050505081526020016002820154815250509050806000015181602001518260400151935093509350509193909250565b6000825111610b0757600080fd5b6000815111610b1557600080fd5b600073ffffffffffffffffffffffffffffffffffffffff163373ffffffffffffffffffffffffffffffffffffffff161415610b4f57600080fd5b6000600160003373ffffffffffffffffffffffffffffffffffffffff1673ffffffffffffffffffffffffffffffffffffffff1681526020019081526020016000206000018054610b9e90611ed5565b905011610baa57600080fd5b6000600283604051610bbc9190611b9a565b908152602001604051809103902060009054906101000a900473ffffffffffffffffffffffffffffffffffffffff169050600073ffffffffffffffffffffffffffffffffffffffff168173ffffffffffffffffffffffffffffffffffffffff161415610c2757600080fd5b6000600160003373ffffffffffffffffffffffffffffffffffffffff1673ffffffffffffffffffffffffffffffffffffffff1681526020019081526020016000206000018054610c7690611ed5565b80601f0160208091040260200160405190810160405280929190818152602001828054610ca290611ed5565b8015610cef5780601f10610cc457610100808354040283529160200191610cef565b820191906000526020600020905b815481529060010190602001808311610cd257829003601f168201915b5050505050905060006040518060400160405280600181526020017f3a0000000000000000000000000000000000000000000000000000000000000081525090506000610d3b42611454565b90506000610d52838561160190919063ffffffff16565b9050610d67828261160190919063ffffffff16565b9050610d7c838261160190919063ffffffff16565b9050610d91868261160190919063ffffffff16565b9050600560008673ffffffffffffffffffffffffffffffffffffffff1673ffffffffffffffffffffffffffffffffffffffff16815260200190815260200160002081908060018154018082558091505060019003906000526020600020016000909190919091509080519060200190610e0b92919061185a565b5050505050505050565b6002818051602081018201805184825260208301602085012081835280955050505050506000915054906101000a900473ffffffffffffffffffffffffffffffffffffffff1681565b6060600073ffffffffffffffffffffffffffffffffffffffff163373ffffffffffffffffffffffffffffffffffffffff161415610e9a57600080fd5b6000600160003373ffffffffffffffffffffffffffffffffffffffff1673ffffffffffffffffffffffffffffffffffffffff1681526020019081526020016000206000018054610ee990611ed5565b905011610ef557600080fd5b600560003373ffffffffffffffffffffffffffffffffffffffff1673ffffffffffffffffffffffffffffffffffffffff168152602001908152602001600020805480602002602001604051908101604052809291908181526020016000905b82821015611000578382906000526020600020018054610f7390611ed5565b80601f0160208091040260200160405190810160405280929190818152602001828054610f9f90611ed5565b8015610fec5780601f10610fc157610100808354040283529160200191610fec565b820191906000526020600020905b815481529060010190602001808311610fcf57829003601f168201915b505050505081526020019060010190610f54565b50505050905090565b600460205280600052604060002060009150905080600001549080600101805461103290611ed5565b80601f016020809104026020016040519081016040528092919081815260200182805461105e90611ed5565b80156110ab5780601f10611080576101008083540402835291602001916110ab565b820191906000526020600020905b81548152906001019060200180831161108e57829003601f168201915b5050505050908060020180546110c090611ed5565b80601f01602080910402602001604051908101604052809291908181526020018280546110ec90611ed5565b80156111395780601f1061110e57610100808354040283529160200191611139565b820191906000526020600020905b81548152906001019060200180831161111c57829003601f168201915b50505050509080600301805461114e90611ed5565b80601f016020809104026020016040519081016040528092919081815260200182805461117a90611ed5565b80156111c75780601f1061119c576101008083540402835291602001916111c7565b820191906000526020600020905b8154815290600101906020018083116111aa57829003601f168201915b5050505050905084565b60608060008073ffffffffffffffffffffffffffffffffffffffff163373ffffffffffffffffffffffffffffffffffffffff16141561120f57600080fd5b6000600160003373ffffffffffffffffffffffffffffffffffffffff1673ffffffffffffffffffffffffffffffffffffffff168152602001908152602001600020600001805461125e90611ed5565b90501161126a57600080fd5b600160003373ffffffffffffffffffffffffffffffffffffffff1673ffffffffffffffffffffffffffffffffffffffff168152602001908152602001600020600001600160003373ffffffffffffffffffffffffffffffffffffffff1673ffffffffffffffffffffffffffffffffffffffff168152602001908152602001600020600101600160003373ffffffffffffffffffffffffffffffffffffffff1673ffffffffffffffffffffffffffffffffffffffff1681526020019081526020016000206002015482805461133d90611ed5565b80601f016020809104026020016040519081016040528092919081815260200182805461136990611ed5565b80156113b65780601f1061138b576101008083540402835291602001916113b6565b820191906000526020600020905b81548152906001019060200180831161139957829003601f168201915b505050505092508180546113c990611ed5565b80601f01602080910402602001604051908101604052809291908181526020018280546113f590611ed5565b80156114425780601f1061141757610100808354040283529160200191611442565b820191906000526020600020905b81548152906001019060200180831161142557829003601f168201915b50505050509150925092509250909192565b6060600082141561149c576040518060400160405280600181526020017f300000000000000000000000000000000000000000000000000000000000000081525090506115fc565b600082905060005b600082146114ce5780806114b790611f07565b915050600a826114c79190611df2565b91506114a4565b60008167ffffffffffffffff811115611510577f4e487b7100000000000000000000000000000000000000000000000000000000600052604160045260246000fd5b6040519080825280601f01601f1916602001820160405280156115425781602001600182028036833780820191505090505b5090505b600085146115f55760018261155b9190611e23565b9150600a8561156a9190611f50565b60306115769190611d9c565b60f81b8183815181106115b2577f4e487b7100000000000000000000000000000000000000000000000000000000600052603260045260246000fd5b60200101907effffffffffffffffffffffffffffffffffffffffffffffffffffffffffffff1916908160001a905350600a856115ee9190611df2565b9450611546565b8093505050505b919050565b60606000839050600083905060008151835161161d9190611d9c565b67ffffffffffffffff81111561165c577f4e487b7100000000000000000000000000000000000000000000000000000000600052604160045260246000fd5b6040519080825280601f01601f19166020018201604052801561168e5781602001600182028036833780820191505090505b5090506000819050600080600091505b8551821015611772578582815181106116e0577f4e487b7100000000000000000000000000000000000000000000000000000000600052603260045260246000fd5b602001015160f81c60f81b8382806116f790611f07565b935081518110611730577f4e487b7100000000000000000000000000000000000000000000000000000000600052603260045260246000fd5b60200101907effffffffffffffffffffffffffffffffffffffffffffffffffffffffffffff1916908160001a905350818061176a90611f07565b92505061169e565b600091505b845182101561184b578482815181106117b9577f4e487b7100000000000000000000000000000000000000000000000000000000600052603260045260246000fd5b602001015160f81c60f81b8382806117d090611f07565b935081518110611809577f4e487b7100000000000000000000000000000000000000000000000000000000600052603260045260246000fd5b60200101907effffffffffffffffffffffffffffffffffffffffffffffffffffffffffffff1916908160001a905350818061184390611f07565b925050611777565b82965050505050505092915050565b82805461186690611ed5565b90600052602060002090601f01602090048101928261188857600085556118cf565b82601f106118a157805160ff19168380011785556118cf565b828001600101855582156118cf579182015b828111156118ce5782518255916020019190600101906118b3565b5b5090506118dc91906118e0565b5090565b5b808211156118f95760008160009055506001016118e1565b5090565b600061191061190b84611cfb565b611cca565b90508281526020810184848401111561192857600080fd5b611933848285611e93565b509392505050565b600082601f83011261194c57600080fd5b813561195c8482602086016118fd565b91505092915050565b6000813590506119748161204e565b92915050565b60006020828403121561198c57600080fd5b600082013567ffffffffffffffff8111156119a657600080fd5b6119b28482850161193b565b91505092915050565b600080604083850312156119ce57600080fd5b600083013567ffffffffffffffff8111156119e857600080fd5b6119f48582860161193b565b925050602083013567ffffffffffffffff811115611a1157600080fd5b611a1d8582860161193b565b9150509250929050565b600060208284031215611a3957600080fd5b6000611a4784828501611965565b91505092915050565b6000611a5c8383611ae8565b905092915050565b611a6d81611e57565b82525050565b6000611a7e82611d3b565b611a888185611d5e565b935083602082028501611a9a85611d2b565b8060005b85811015611ad65784840389528151611ab78582611a50565b9450611ac283611d51565b925060208a01995050600181019050611a9e565b50829750879550505050505092915050565b6000611af382611d46565b611afd8185611d6f565b9350611b0d818560208601611ea2565b611b168161203d565b840191505092915050565b6000611b2c82611d46565b611b368185611d80565b9350611b46818560208601611ea2565b611b4f8161203d565b840191505092915050565b6000611b6582611d46565b611b6f8185611d91565b9350611b7f818560208601611ea2565b80840191505092915050565b611b9481611e89565b82525050565b6000611ba68284611b5a565b915081905092915050565b6000602082019050611bc66000830184611a64565b92915050565b60006020820190508181036000830152611be68184611a73565b905092915050565b60006020820190508181036000830152611c088184611b21565b905092915050565b60006060820190508181036000830152611c2a8186611b21565b90508181036020830152611c3e8185611b21565b9050611c4d6040830184611b8b565b949350505050565b6000602082019050611c6a6000830184611b8b565b92915050565b6000608082019050611c856000830187611b8b565b8181036020830152611c978186611b21565b90508181036040830152611cab8185611b21565b90508181036060830152611cbf8184611b21565b905095945050505050565b6000604051905081810181811067ffffffffffffffff82111715611cf157611cf061200e565b5b8060405250919050565b600067ffffffffffffffff821115611d1657611d1561200e565b5b601f19601f8301169050602081019050919050565b6000819050602082019050919050565b600081519050919050565b600081519050919050565b6000602082019050919050565b600082825260208201905092915050565b600082825260208201905092915050565b600082825260208201905092915050565b600081905092915050565b6000611da782611e89565b9150611db283611e89565b9250827fffffffffffffffffffffffffffffffffffffffffffffffffffffffffffffffff03821115611de757611de6611f81565b5b828201905092915050565b6000611dfd82611e89565b9150611e0883611e89565b925082611e1857611e17611fb0565b5b828204905092915050565b6000611e2e82611e89565b9150611e3983611e89565b925082821015611e4c57611e4b611f81565b5b828203905092915050565b6000611e6282611e69565b9050919050565b600073ffffffffffffffffffffffffffffffffffffffff82169050919050565b6000819050919050565b82818337600083830152505050565b60005b83811015611ec0578082015181840152602081019050611ea5565b83811115611ecf576000848401525b50505050565b60006002820490506001821680611eed57607f821691505b60208210811415611f0157611f00611fdf565b5b50919050565b6000611f1282611e89565b91507fffffffffffffffffffffffffffffffffffffffffffffffffffffffffffffffff821415611f4557611f44611f81565b5b600182019050919050565b6000611f5b82611e89565b9150611f6683611e89565b925082611f7657611f75611fb0565b5b828206905092915050565b7f4e487b7100000000000000000000000000000000000000000000000000000000600052601160045260246000fd5b7f4e487b7100000000000000000000000000000000000000000000000000000000600052601260045260246000fd5b7f4e487b7100000000000000000000000000000000000000000000000000000000600052602260045260246000fd5b7f4e487b7100000000000000000000000000000000000000000000000000000000600052604160045260246000fd5b6000601f19601f8301169050919050565b61205781611e89565b811461206257600080fd5b5056fea2646970667358221220fe66599712161cd550c5f6c4eec016c0a6b33ea68f9a7f4ee3176f1d9ddf6c6364736f6c63430008000033",
  "immutableReferences": {},
  "source": "// SPDX-License-Identifier: MIT\npragma solidity ^0.8.0;\n\nlibrary Strings {\n  function concat(string memory _base, string memory _value) internal returns (string memory) {\n    bytes memory _baseBytes = bytes(_base);\n    bytes memory _valueBytes = bytes(_value);\n\n    string memory _tmpValue = new string(_baseBytes.length + _valueBytes.length);\n    bytes memory _newValue = bytes(_tmpValue);\n\n    uint i;\n    uint j;\n\n    for(i=0; i<_baseBytes.length; i++) {\n      _newValue[j++] = _baseBytes[i];\n    }\n\n    for(i=0; i<_valueBytes.length; i++) {\n      _newValue[j++] = _valueBytes[i];\n    }\n\n    return string(_newValue);\n  }\n}\n\ncontract DHire {\n  using Strings for string;\n\n  string public name = \"DHire\";\n\n  // Model\n  struct User {\n    string name;\n    string bio;\n    uint resumeId;\n  }\n\n  struct Resume {\n    uint id;\n    string hash; // to ipfs document\n    string authorName;\n    string authorBio;\n  }\n\n  mapping(address => User) private users;\n  mapping(string => address) public nameToUser;\n\n  uint public resumeCount = 0;\n  mapping(uint => Resume) public resumes;\n\n  // message: `author:timestamp:message`\n  mapping(address => string[]) private messages;\n\n  constructor() {\n  }\n  \n  function registerUser(string memory _username, string memory _bio) public {\n    require(bytes(_username).length > 0);\n    require(msg.sender != address(0));\n\n    require(nameToUser[_username] == address(0));\n\n    users[msg.sender] = User(_username, _bio, 0);\n    nameToUser[_username] = msg.sender;\n  }\n\n  function getSelf() public view returns(string memory, string memory, uint) {\n    require(msg.sender != address(0));\n    require(bytes(users[msg.sender].name).length > 0);\n\n    return (users[msg.sender].name, users[msg.sender].bio, users[msg.sender].resumeId);\n  }\n\n  function getUser(string memory _username) public view returns(string memory, string memory, uint) {\n    require(bytes(_username).length > 0);\n    require(msg.sender != address(0));\n    require(nameToUser[_username] != address(0));\n\n    User memory user = users[nameToUser[_username]];\n    return (user.name, user.bio, user.resumeId);\n  }\n\n  function uploadResume(string memory _docHash) public {\n    require(bytes(_docHash).length > 0);\n    require(msg.sender != address(0));\n\n    require(bytes(users[msg.sender].name).length > 0);\n\n    if (users[msg.sender].resumeId <= 0) { // no resume yet, create new\n      resumeCount++;\n      users[msg.sender].resumeId = resumeCount;\n    }\n\n    resumes[users[msg.sender].resumeId] = Resume(users[msg.sender].resumeId, _docHash, users[msg.sender].name, users[msg.sender].bio);\n  }\n\n  function getMessages() public view returns(string[] memory) {\n    require(msg.sender != address(0));\n    require(bytes(users[msg.sender].name).length > 0);\n    return messages[msg.sender];\n  }\n\n  function sendMessage(string memory _rcvName, string memory _message) public {\n    require(bytes(_rcvName).length > 0);\n    require(bytes(_message).length > 0);\n\n    require(msg.sender != address(0));\n    require(bytes(users[msg.sender].name).length > 0);\n\n    address rcvAddress = nameToUser[_rcvName];\n    require(rcvAddress != address(0));\n\n    string memory senderName = users[msg.sender].name;\n\n    string memory delimeter = \":\";\n    string memory timestamp = toString(block.timestamp);\n    string memory message = senderName.concat(delimeter);\n    message = message.concat(timestamp);\n    message = message.concat(delimeter);\n    message = message.concat(_message);\n    \n    // string memory message = string(concat(bytes(senderName), \":\", bytes(_timestamp), \":\", bytes(_message)));\n    messages[rcvAddress].push(message);\n  }\n\n  // https://github.com/OpenZeppelin/openzeppelin-contracts/blob/master/contracts/utils/Strings.sol#L15-L35\n  function toString(uint value) internal pure returns (string memory) {\n    if (value == 0) {\n        return \"0\";\n    }\n    uint temp = value;\n    uint digits;\n    while (temp != 0) {\n        digits++;\n        temp /= 10;\n    }\n    bytes memory buffer = new bytes(digits);\n    while (value != 0) {\n        digits -= 1;\n        buffer[digits] = bytes1(uint8(48 + uint256(value % 10)));\n        value /= 10;\n    }\n    return string(buffer);\n  }\n}\n",
  "sourcePath": "/Users/prince/projects/Hir3/contracts/DHire.sol",
  "compiler": {
    "name": "solc",
    "version": "0.8.0+commit.c7dfd78e.Emscripten.clang"
  },
  "schemaVersion": "3.2.3",
  "updatedAt": "2022-05-07T22:43:06.273Z",
  "networkType": "ethereum",
  "devdoc": {
    "kind": "dev",
    "methods": {},
    "version": 1
  },
  "userdoc": {
    "kind": "user",
    "methods": {},
    "version": 1
  }
}